:100000000C94C6000C94E5000C94E5000C94E500FB
:100010000C94E5000C94E5000C94E5000C94E500CC
:100020000C94E5000C94E5000C94E5000C94E500BC
:100030000C94E5000C94E5000C94E5000C94E500AC
:100040000C94E5000C94E5000C9406090C943A0914
:100050000C94E5000C94E5000C94E5000C94E5008C
:100060000C94E5000C94E5000C94E5000C94E5007C
:100070000C94E5000C94E5000C94CC090C94020A55
:100080000C94E5000C94E5000C94E50041542B48D9
:10009000545450414354494F4E3D300D0041542B70
:1000A00048545450414354494F4E3D310D00415442
:1000B0002B48545450504152413D22434F4E5445D9
:1000C0004E54222C226170706C69636174696F6E8A
:1000D0002F782D7777772D666F726D2D75726C6521
:1000E0006E636F646564220D0041542B4854545074
:1000F000504152413D22434944222C310D0041548C
:100100002B48545450494E49540D0041542B4854E7
:1001100054505445524D0D0041542B5341504252BE
:100120003D312C310D0041542B53415042523D3052
:100130002C310D0041542B53415042523D322C3151
:100140000D0041542B434C49503D310D0041542B7F
:1001500043504D533D22534D222C22534D222C22ED
:10016000534D220D0041542B434D47463D310D0068
:1001700041540D0041540D0041542B435245473F1B
:100180000D0041542B435245473F0D0011241FBE23
:10019000CFEFD0E1DEBFCDBF12E0A0E0B1E0EEECEA
:1001A000FEE100E00BBF02C007900D92A035B10741
:1001B000D9F712E0A0E5B2E001C01D92AE3DB10753
:1001C000E1F70E9425020C94650F0C940000AF9893
:1001D00088230CF4AF9AAE9886FDAE9AAD9885FD53
:1001E000AD9AAC9884FDAC9A979A82E08A95F1F723
:1001F00000C0979882E08A95F1F700C008951F9398
:10020000182F959897980E94E700812F8295807FFC
:100210000E94E7001F9108951F93182F959A9798B1
:100220000E94E700812F8295807F0E94E7001F9146
:1002300008950F931F93DF93CF9300D0CDB7DEB710
:100240008C011A821982E981FA81E80FF91F8081F5
:100250008823B9F0E981FA81E00FF11F80810E94C3
:100260000C0189819A8101969A83898385ED8A950B
:10027000F1F70000E981FA81E00FF11F8081882306
:1002800049F70F900F90CF91DF911F910F91089533
:100290001F93182F85ED8A95F1F70000812F829525
:1002A0008F70282F30E02A30310514F4805D01C0B2
:1002B000895C95ED9A95F1F700000E940C0185ED9F
:1002C0008A95F1F70000212F30E02F7030702A302E
:1002D000310524F41F70812F805D03C01F70812FB2
:1002E000895C0E940C0195ED9A95F1F700001F9131
:1002F00008958FEF90E7A2E081509040A040E1F791
:1003000000C000009598979880E30E94E700AFE155
:10031000BEE41197F1F700C0000080E30E94E700FF
:100320008FEC97E00197F1F700C0000080E30E9496
:10033000E700AFECB7E01197F1F700C0000088E2EA
:100340000E94E7008FEC97E00197F1F700C00000F2
:1003500088E20E94FF00AFECB7E01197F1F700C010
:10036000000088E00E94FF008FEC97E00197F1F712
:1003700000C0000081E00E94FF00AFE3BFE11197E1
:10038000F1F700C0000086E00E94FF008FEC97E0CC
:100390000197F1F700C000008CE00E94FF00AFEC75
:1003A000B7E01197F1F700C000000895982F907FF3
:1003B00095BB959AE5E6F0E0908190689083AFEC6C
:1003C000B7E01197F1F700C0000090819F7790830C
:1003D0009598AFECB7E01197F1F700C0000090E0FE
:1003E00082959295907F9827807F982785BB959AD4
:1003F0008081806880838FEC97E00197F1F700C0DF
:10040000000080818F7780839598AFECB7E01197DB
:10041000F1F700C0000008951F93CF93DF93EC0124
:10042000FE012491222369F010E0FC0184910E94D6
:10043000D6011F5FCE01810F911DFC012491222363
:10044000A1F7DF91CF911F9108958FEF84BB8F9A11
:100450008D9A95980E94790181E00E94FF008FE1BA
:100460009EE40197F1F700C0000080E091E00E9457
:10047000190180E895E20E947102789481E00E945F
:10048000FF00AFE1BEE41197F1F700C0000081E08A
:100490000E94C5038FEF99E6A8E181509040A040EB
:1004A000E1F700C0000085E091E00E94190181E1C0
:1004B00091E06EE171E00E9429048BE60E940C013C
:1004C0008FEF99E6A8E181509040A040E1F700C08D
:1004D0000000F3CF0E944B0A21E080309207D1F751
:1004E0000895CF93DF939C0140E050E0CA01B90129
:1004F000605C7D4B804F9F4F660F771F881F991F51
:10050000660F771F881F991F660F771F881F991F17
:10051000220F331F441F551F220F331F441F551F27
:10052000220F331F441F551F220F331F441F551F17
:100530000E94A00AC90101970E94310A8FEF90E73B
:10054000A2E081509040A040E1F700C00000CDE261
:10055000D1E0CE010E947F0A8FEF90E7A2E08150A8
:100560009040A040E1F700C00000CE010E947F0A49
:100570008FEF90E7A2E081509040A040E1F700C0EB
:1005800000008FE291E00E947F0A8FEF99E6A8E1D8
:1005900081509040A040E1F700C000000E946A0234
:1005A000DF91CF9108952F923F924F925F926F9279
:1005B0007F928F929F92AF92BF92CF92DF92EF92F3
:1005C000FF920F931F93DF93CF9300D000D00F9231
:1005D000CDB7DEB7282E3B012A0148015901E98237
:1005E000DB82CA8280E490E061E070E00E94C20A8F
:1005F000182FE92E982F492F5E2D5D834C834115CE
:10060000510509F478C0E92FFE2D80E4DF011D9229
:100610008A95E9F761147104E9F10E946A022220C7
:1006200021F0C3010E948E0A35C0C3010E947F0AD7
:1006300031C00894E11CF11C011D111DB2E0BA95F6
:10064000F1F700C00E944B0AE1E080309E0739F4C8
:10065000E814F9040A051B0560F310E033C0E81440
:10066000F9040A051B0538F5D3018D933D01D39498
:100670004114510439F08C819D81B2010E94550CC6
:100680000097D9F48C819D81B1010E94550C00978F
:1006900059F015C0612E7E2CDD240F2EF4E32F2E91
:1006A000F1E03F2EF02D03C0BD2DBF3351F0EE24FD
:1006B000FF248701C7CF10E005C011E003C010E0A0
:1006C00001C010E0E981EE2389F0EA80FB80E114AB
:1006D000F10461F0DE1650F4112341F08A819B8110
:1006E0006C817D814D2D50E00E94450C8C819D8157
:1006F0000E94810B01C010E0812F0F900F900F908E
:100700000F900F90CF91DF911F910F91FF90EF907D
:10071000DF90CF90BF90AF909F908F907F906F9021
:100720005F904F903F902F900895CF92DF92EF927D
:100730000F931F9381E062E871E04AE351E000E427
:100740001BE42CE430E0EE24CC24DD240E94D30210
:10075000882391F481E068E771E045E451E000E42A
:100760001BE42CE430E00E94D30221E030E0882337
:1007700029F420E030E002C021E030E0822F1F9118
:100780000F91EF90DF90CF900895AF92BF92CF92EC
:10079000DF92EF920F931F93CF93DF938823B9F0EB
:1007A000C4E7D1E00F2EF0E5AF2EF1E0BF2EF02D23
:1007B00081E0BE01A50100E211EA27E030E0EE246D
:1007C000CC24DD240E94D302882391F310C081E061
:1007D00060E771E040E551E000E211EA27E030E037
:1007E000EE24CC24DD240E94D302882341F181E051
:1007F00065E671E040E551E000E211EA27E030E013
:10080000EE24CC24DD240E94D3028823C1F081E0B1
:100810006DE471E040E551E000E211EA27E030E0EC
:100820000E94D302882359F081E062E471E040E540
:1008300051E000E211EA27E030E00E94D302DF91AC
:10084000CF911F910F91EF90DF90CF90BF90AF901D
:100850000895AF92BF92CF92DF92EF92FF920F93E3
:100860001F93CF93DF937C01B62EA72E80E290E0FA
:1008700061E070E00E94C20A082F192FC82EE6011D
:100880006E01D92EE601209709F45CC0E02FF92F04
:1008900080E2DF011D928A95E9F78DB79EB7089730
:1008A0000FB6F8949EBF0FBE8DBFEDB7FEB7319661
:1008B000ADB7BEB711960C93119712961C9380E2B8
:1008C00090E09383828383E591E095838483F7822C
:1008D000E6820E94770C8DB79EB708960FB6F89403
:1008E0009EBF0FBE8DBF80E0602F712F41E651E0AB
:1008F00000E814E82EE130E0EE24CC24DD240E9450
:10090000D302182F8823D1F0DE018B2D9A2DFC0104
:100910008EE101900D928150E1F78AE18E8F1F8E5A
:1009200080E0BE0140E551E000E816E928E930E04A
:10093000EE24CC24DD240E94D302182FCE010E9485
:10094000810B01C010E0812FDF91CF911F910F919A
:10095000FF90EF90DF90CF90BF90AF900895CF922F
:10096000DF92EF92FF920F931F93CF93DF938C014F
:100970008EE190E061E070E00E94C20AE82EE7019B
:100980007E01F92EE701209709F440C0EE2DF92FE2
:100990008EE1DF011D928A95E9F72DB73EB7285009
:1009A00030400FB6F8943EBF0FBE2DBFEDB7FEB777
:1009B0003196ADB7BEB71296FC92EE9211978EE1CA
:1009C00090E09383828383E691E095838483178309
:1009D00006830E94770C2DB73EB7285F3F4F0FB6B6
:1009E000F8943EBF0FBE2DBF80E0B70140E551E057
:1009F00000E816E928E930E0EE24CC24DD240E944A
:100A0000D302082FCE010E94810B01C000E0802F8D
:100A1000DF91CF911F910F91FF90EF90DF90CF90DA
:100A20000895CF92DF92EF920F931F9381E064E3DA
:100A300071E04BE651E000E211EA27E030E0EE24FD
:100A4000CC24DD240E94D3021F910F91EF90DF9000
:100A5000CF900895CF92DF92EF920F931F930E9451
:100A60001105882379F081E066E271E040E551E00C
:100A700000E41BE42CE430E0EE24CC24DD240E94CE
:100A8000D30201C081E01F910F91EF90DF90CF90D2
:100A90000895CF92DF92EF920F931F9381E068E168
:100AA00071E040E551E000E011EE25EF35E0EE2485
:100AB000CC24DD240E94D3021F910F91EF90DF9090
:100AC000CF9008956F927F928F929F92AF92BF9234
:100AD000CF92DF92EF92FF920F931F93CF93DF930A
:100AE0005C014B013A0183E290E061E070E00E941A
:100AF000C20A382FE82EE7017E01F92EE701209780
:100B000009F413C1E32FF92F83E2DF011D928A95C7
:100B1000E9F70E949503882329F4C7010E94810BFD
:100B200080E004C10E941105882329F0C7010E94BA
:100B3000810B81E0FBC08DB79EB708970FB6F89484
:100B40009EBF0FBE8DBFEDB7FEB73196ADB7BEB736
:100B50001296FC92EE92119783E290E09383828347
:100B60008FE691E09583848383E891E09783868381
:100B70000E94770C8DB79EB708960FB6F8949EBF6B
:100B80000FBE8DBF80E0B70140E551E000E412E404
:100B90002FE030E0EE24CC24DD240E94D302882311
:100BA00029F4CE010E94810B80E0C0C0ADB7BEB772
:100BB0001A970FB6F894BEBF0FBEADBFEDB7FEB724
:100BC00031961296DC93CE93119783E290E0938353
:100BD000828381E991E09583848383E891E0978320
:100BE0008683B186A0860E94770C8DB79EB70A9641
:100BF0000FB6F8949EBF0FBE8DBF80E0BE0140E5EA
:100C000051E000E412E42FE030E0EE24CC24DD24B7
:100C10000E94D302882329F4CE010E94810B80E038
:100C200085C0ADB7BEB71A970FB6F894BEBF0FBE5A
:100C3000ADBFEDB7FEB731961296DC93CE93119708
:100C400083E290E0938382838FE991E095838483AC
:100C500083E891E097838683918680860E94770C53
:100C60008DB79EB70A960FB6F8949EBF0FBE8DBF84
:100C700080E0BE0140E551E000E412E42FE030E006
:100C8000EE24CC24DD240E94D302882329F4CE0153
:100C90000E94810B80E04AC0ADB7BEB71A970FB66D
:100CA000F894BEBF0FBEADBFEDB7FEB7319612963A
:100CB000DC93CE93119783E290E0938382838EEA54
:100CC00091E09583848383E891E09783868371869E
:100CD00060860E94770C8DB79EB70A960FB6F8947F
:100CE0009EBF0FBE8DBF80E0BE0140E551E000E435
:100CF00012E42FE030E0EE24CC24DD240E94D30265
:100D0000882329F4CE010E94810B80E00FC00E944D
:100D10004905882329F4CE010E94810B80E006C09A
:100D2000CE010E94810B81E001C080E0DF91CF9174
:100D30001F910F91FF90EF90DF90CF90BF90AF90F9
:100D40009F908F907F906F900895CF92DF92EF9257
:100D50000F931F9381E06BE071E040E551E000E408
:100D60001BE42CE430E0EE24CC24DD240E94D302EA
:100D70001F910F91EF90DF90CF9008953F924F9287
:100D80005F926F927F928F929F92AF92BF92CF921B
:100D9000DF92EF92FF920F931F93DF93CF9300D0D8
:100DA00000D000D0CDB7DEB7782E2B01642E352EC3
:100DB000F22E480184E690E061E070E00E94C20AF1
:100DC000A82EB92EA114B10409F406C2011511050B
:100DD00041F0802F992D60E070E04F2D50E00E948F
:100DE0004E0C0E941105882329F4C5010E94810B35
:100DF00010E0F3C10E94A5068FEF90E7A2E08150BA
:100E00009040A040E1F700C0000081E06EEF70E08C
:100E100040E551E000E41BE42CE430E0EE24CC2477
:100E2000DD240E94D302882329F4C5010E94810B8E
:100E300010E0D3C181E069EE70E040E551E000E4EC
:100E40001BE42CE430E0EE24CC24DD240E94D30209
:100E5000882339F40E94A506C5010E94810B10E089
:100E6000BCC1EA2DFB2D84E6DF011D928A95E9F7CE
:100E7000772041F1EDB7FEB73A970FB6F894FEBF71
:100E80000FBEEDBF3196ADB7BEB71296BC92AE9213
:100E9000119784E690E09383828380EE91E09583BE
:100EA000848388EE91E097838683518640860E94F2
:100EB000770CEDB7FEB73A960FB6F894FEBF0FBEAB
:100EC000EDBF2BC08DB79EB70C970FB6F8949EBFA1
:100ED0000FBE8DBFEDB7FEB73196ADB7BEB7129658
:100EE000BC92AE92119784E690E0938382838BEF5D
:100EF00091E09583848388EE91E097838683518681
:100F00004086628633860E94770CEDB7FEB73C962A
:100F10000FB6F894FEBF0FBEEDBF80E0B50140E50F
:100F200051E000E41BE42CE430E0EE24CC24DD248A
:100F30000E94D302882339F40E94A506C5010E94AD
:100F4000810B10E04AC1772009F478C081E06EEA95
:100F500070E040E551E000E41BE42CE430E0EE24D6
:100F6000CC24DD240E94D302882339F40E94A506F4
:100F7000C5010E94810B10E030C1EA2DFB2D84E6F3
:100F8000DF011D928A95E9F7E62DF32DDF010D9023
:100F90000020E9F711979D012E1B3F0BEDB7FEB71F
:100FA00038970FB6F894FEBF0FBEEDBF3196ADB7C0
:100FB000BEB71296BC92AE92119784E690E09383EE
:100FC000828386E092E095838483378326830E9420
:100FD000770CEDB7FEB738960FB6F894FEBF0FBE8C
:100FE000EDBF80E0B5014CE152E000E01DE221E3FD
:100FF00031E0EE24CC24DD240E94D302882339F48E
:101000000E94A506C5010E94810B10E0E6C080E0A9
:10101000662D732D40E551E000E41BE42CE430E044
:10102000EE24CC24DD240E94D302882361F40E94A4
:10103000A506C5010E94810B10E0CFC06CE870E0EE
:101040004EEC51E004C06DE970E04CEB51E081E002
:1010500000E01DE221E331E0EE24CC24DD240E94F7
:10106000D302182F882309F4B1C0EA2DFB2D84E6A2
:10107000DF011D928A95E9F780E060E070E045E2CB
:1010800052E000E412E42FE030E00F2EF4E6EF2E01
:10109000F02D65010E94D302182F882309F496C011
:1010A000C5016DE070E044E650E00E94380C282F46
:1010B000392F2115310509F489C03E010894611CBE
:1010C000711C86E0F30111928A95E9F7A5014F5F43
:1010D0005F4F241B350BC301642F752F422F532FF5
:1010E0000E94450CC3010E941A0C2F2D30E0682E7F
:1010F000792E2615370508F439016114710409F4B5
:1011000065C0EA2DFB2D84E6DF011D928A95E9F783
:10111000EDB7FEB738970FB6F894FEBF0FBEEDBF20
:101120003196ADB7BEB71296BC92AE92119784E6D7
:1011300090E09383828387E292E095838483778231
:1011400066820E94770CEDB7FEB738960FB6F8941A
:10115000FEBF0FBEEDBF80E0B50149E352E000E401
:101160001BE42CE430E0EE24CC24DD240E94D302E6
:10117000182F882359F1EA2DFB2D84E6DF011D92FB
:101180008A95E9F780E060E070E044E452E000E432
:1011900012E42FE030E00F2EF4E6EF2EF02D650183
:1011A0000E94D302182F882389F0C5016AE070E0FD
:1011B000A3010E94380C9C012F5F3F4F882D992D71
:1011C000622F732F462D572D0E94450C0E94A506B5
:1011D000C5010E94810B01C010E0812F26960FB639
:1011E000F894DEBF0FBECDBFCF91DF911F910F915D
:1011F000FF90EF90DF90CF90BF90AF909F908F9037
:101200007F906F905F904F903F9008951F920F9244
:101210000FB60F920BB60F9211242F933F938F931B
:101220009F93EF93FF932BB13CB18091B7028F5FF7
:101230008F719091B802891749F02C718093B70291
:10124000E9EBF2E0E80FF11D308301C022E090915C
:10125000D902822F892B8093D902FF91EF919F9120
:101260008F913F912F910F900BBE0F900FBE0F905B
:101270001F9018951F920F920FB60F920BB60F92F8
:1012800011248F939F93EF93FF93909195028091F8
:101290009602981769F0809196028F5F8F71809304
:1012A0009602E7E9F2E0E80FF11D80818CB901C0F8
:1012B0005598FF91EF919F918F910F900BBE0F90DA
:1012C0000FBE0F901F9018951092950210929602E3
:1012D0001092B7021092B802992314F422E02BB9AD
:1012E000292F20782093900089B988E98AB986E06F
:1012F0008093950008959091B7028091B802981755
:10130000A1F08091B8028F5F8F71E9EBF2E0E80FF6
:10131000F11D90814091D9028093B8021092D902B8
:10132000342F20E0290F311D02C020E031E0822F50
:10133000932F0895209195022F5F2F71909196021F
:101340002917E1F3E7E9F2E0E20FF11D8083209332
:101350009502559A0895CF93DF93EC0188818823F5
:1013600031F021960E949A0989918823D9F7DF915B
:10137000CF910895CF93DF93EC01FC0184918823F2
:1013800041F021960E949A09FE01219684918823BA
:10139000C9F7DF91CF9108951F920F920FB60F9268
:1013A0000BB60F9211242F933F938F939F93EF933C
:1013B000FF9320919B0030919C00809172028F5F7F
:1013C0008F7190917302891749F02C71809372028A
:1013D000E4E7F2E0E80FF11D308301C022E09091D4
:1013E0009402822F892B80939402FF91EF919F9119
:1013F0008F913F912F910F900BBE0F900FBE0F90CA
:101400001F9018951F920F920FB60F920BB60F9266
:1014100011248F939F93EF93FF93909150028091AB
:101420005102981771F0809151028F5F8F718093F4
:101430005102E2E5F2E0E80FF11D808180939C000B
:1014400005C0EAE9F0E080818F7D8083FF91EF9114
:101450009F918F910F900BBE0F900FBE0F901F901A
:10146000189510925002109251021092720210922E
:10147000730299231CF422E020939B00292F2078EB
:10148000209398008093990088E980939A0086E0E1
:1014900080939D0008959091720280917302981735
:1014A000A1F0809173028F5F8F71E4E7F2E0E80FA3
:1014B000F11D9081409194028093730210929402E6
:1014C000342F20E0290F311D02C020E031E0822FAF
:1014D000932F0895209150022F5F2F719091510208
:1014E0002917E1F3E2E5F2E0E20FF11D808320939A
:1014F0005002EAE9F0E08081806280830895CF9312
:10150000DF93EC018881882331F021960E946A0ADA
:1015100089918823D9F7DF91CF910895CF93DF93F5
:10152000EC01FC018491882341F021960E946A0A13
:10153000FE01219684918823C9F7DF91CF91089508
:10154000A1E21A2EAA1BBB1BFD010DC0AA1FBB1FC7
:10155000EE1FFF1FA217B307E407F50720F0A21B39
:10156000B30BE40BF50B661F771F881F991F1A94A6
:1015700069F760957095809590959B01AC01BD01D0
:10158000CF010895EF92FF920F931F93CF93DF93B4
:10159000689F8001699F100D789F100D1124C8016C
:1015A0000E94E70AE82EE7017E01F92EE701209765
:1015B00031F08E2D60E070E0A8010E944E0CCE014B
:1015C000DF91CF911F910F91FF90EF900895CF93EE
:1015D000DF938230910510F482E090E0E091DC022C
:1015E000F091DD0240E050E020E030E026C0608174
:1015F000718168177907E0F06817790781F48281B3
:1016000093812115310531F0D90113969C938E9366
:1016100012972BC09093DD028093DC0226C0411507
:10162000510519F06417750718F4AB01E901DF01E2
:101630009F0172816381E72FF62F3097C1F6411524
:10164000510501F1481B590B4430510580F41296A5
:101650008D919C911397209719F09B838A8304C0E6
:101660009093DD028093DC02FD01329646C0FD01BD
:10167000E40FF51F819391934250504011965C9373
:101680004E933BC02091DA023091DB0221153105E7
:1016900041F420914B0230914C023093DB022093B5
:1016A000DA0220914D0230914E022115310541F4AC
:1016B0002DB73EB74091490250914A02241B350B89
:1016C000E091DA02F091DB02E217F307A0F42E1B9F
:1016D0003F0B2817390778F0AC014E5F5F4F241796
:1016E000350748F04E0F5F1F5093DB024093DA023C
:1016F0008193919302C0E0E0F0E0CF01DF91CF91C0
:101700000895CF93DF93009709F491C0FC013297BD
:10171000138212826091DC027091DD026115710505
:1017200081F420813181280F391F8091DA02909154
:10173000DB028217930799F5F093DB02E093DA025C
:1017400076C0DB0180E090E002C0CD01D901AE1788
:10175000BF0748F412962D913C911397211531053E
:10176000A1F7CD0121C0B383A283EF014991599123
:101770009E01240F351FA217B30779F42D913C91D8
:101780001197240F351F2E5F3F4F31832083129610
:101790002D913C91139733832283009729F4F09382
:1017A000DD02E093DC0243C0DC011396FC93EE9370
:1017B00012974D915D91A40FB51FEA17FB0769F4CD
:1017C00020813181240F351F2E5F3F4FEC0139837B
:1017D0002883228133813B832A83E0E0F0E002C04A
:1017E000FB01BC01DB0112968D919C911397009730
:1017F000B9F79B012E5F3F4F8D919C911197820FFE
:10180000931F4091DA025091DB024817590779F48F
:10181000309729F41092DD021092DC0202C013828C
:101820001282225030403093DB022093DA02DF91A3
:10183000CF910895FC0188279927E89421912032BF
:10184000E9F3293010F02E30C8F32B3241F02D325D
:1018500039F4689404C00E946F0C820F911D21918D
:1018600020532A30C0F31EF4909581959F4F089520
:10187000FC014150504030F001900616D1F73197ED
:10188000CF010895882799270895FB01DC0102C044
:1018900001900D9241505040D8F70895DC0101C0ED
:1018A0006D9341505040E0F70895FB01519155234D
:1018B000A9F0BF01DC014D9145174111E1F759F441
:1018C000CD010190002049F04D9140154111C9F31F
:1018D000FB014111EFCF81E090E0019708957AE09C
:1018E000979F902D879F802D910D112408950F9320
:1018F0001F93DF93CF93CDB7DEB72E970FB6F89433
:10190000DEBF0FBECDBF0D891E898F89988D26E061
:101910002C831A83098397FF02C080E090E8019727
:101920009E838D839E01255E3F4FCE010196698D7A
:101930007A8DA9010E94B50C4D815E8157FD0AC0C8
:101940002F813885421753070CF49A01020F131F99
:10195000F80110822E960FB6F894DEBF0FBECDBFF1
:10196000CF91DF911F910F9108952F923F924F9247
:101970005F926F927F928F929F92AF92BF92CF921F
:10198000DF92EF92FF920F931F93DF93CF93CDB728
:10199000DEB72C970FB6F894DEBF0FBECDBF6C013B
:1019A0001B018A01FC0117821682838181FFD1C14C
:1019B0002E010894411C511CF6019381F10193FD05
:1019C000859193FF81911F01882309F4BEC185325F
:1019D00039F493FD859193FF81911F01853229F49C
:1019E00090E0B6010E94DB0EE7CFEE24FF2420E05A
:1019F0002032B0F48B3269F08C3228F4803251F00E
:101A0000833271F40BC08D3239F0803349F4216098
:101A10002CC02260246029C0286027C0206125C016
:101A200027FD2CC0382F30533A3098F426FF08C0D9
:101A30008E2D880FE82EEE0CEE0CE80EE30E15C08E
:101A40008F2D880FF82EFF0CFF0CF80EF30E20627E
:101A50000CC08E3221F426FD78C1206406C08C367D
:101A600011F4206802C0883649F4F10193FD859194
:101A700093FF81911F01882309F0BACF982F9554C5
:101A8000933018F09052933028F40C5F1F4FFFE30F
:101A9000F9830DC0833631F0833771F0833509F057
:101AA00060C022C0F801808189830E5F1F4F420110
:101AB00071E0A72EB12C16C062E0662E712C600E6C
:101AC000711EF8018080918026FF03C06E2D70E0AA
:101AD00002C06FEF7FEFC4012C870E94D00E5C0123
:101AE00083012C852F7717C052E0652E712C600E74
:101AF000711EF8018080918026FF03C06E2D70E07A
:101B000002C06FEF7FEFC4012C870E94C50E5C01FD
:101B10002C852068830123FD20C008C080E290E06E
:101B2000B6012C870E94DB0EFA942C858F2D90E055
:101B3000A816B90698F311C0F40127FD859127FF77
:101B400081914F0190E0B6012C870E94DB0E2C851D
:101B5000F110FA940894A108B108A114B10461F736
:101B6000F1C0843611F0893649F527FF08C0F80125
:101B700060817181828193810C5F1F4F09C0F801E0
:101B800060817181882777FD8095982F0E5F1F4FA8
:101B90004FE6B42EB22297FF09C0909580957095BC
:101BA00061957F4F8F4F9F4FF0E8BF2AA2012AE037
:101BB00030E00E94070F782E741845C0853731F445
:101BC0003FEEB32EB2222AE030E025C099EFB92EC5
:101BD000B2228F36C1F0803720F4883509F0B5C0C5
:101BE0000DC0803721F0883709F0AFC002C020E176
:101BF000B22AB4FE0BC084E0B82A08C0B4FE09C003
:101C0000E6E0BE2A06C028E030E005C020E130E072
:101C100002C020E132E0B7FE08C0F80160817181A6
:101C2000828193810C5F1F4F07C0F8016081718131
:101C300080E090E00E5F1F4FA2010E94070F782EF8
:101C40007418FFE7BF22B6FE0BC02EEFB2227E143F
:101C500038F4B4FE07C0B2FC05C08FEEB82202C053
:101C6000A72C01C0AE2C8B2D90E0B4FE0DC0FE0160
:101C7000E70DF11D2081203319F4E9EEBE2209C0E1
:101C8000A394B2FE06C004C086789070009709F055
:101C9000A3948B2C9924B3FC14C0B0FE0FC0AF14D6
:101CA00028F4E72CEF0CEA18AF2C08C0E72C06C08C
:101CB00080E290E0B6010E94DB0EA394AF14C0F363
:101CC00004C0AF1410F4FA1801C0FF2484FE0FC042
:101CD00080E390E0B6010E94DB0E82FE1FC081FE11
:101CE00003C088E590E010C088E790E00DC0C40113
:101CF00086789070009791F081FC02C080E201C06C
:101D00008BE2B7FC8DE290E0B6010E94DB0E06C0CC
:101D100080E390E0B6010E94DB0EEA947E14C0F3EB
:101D20007A94F201E70DF11D808190E0B6010E94E6
:101D3000DB0E7720A9F706C080E290E0B6010E9492
:101D4000DB0EFA94FF20C1F737CEF60126813781EA
:101D500002C02FEF3FEFC9012C960FB6F894DEBFFB
:101D60000FBECDBFCF91DF911F910F91FF90EF90EC
:101D7000DF90CF90BF90AF909F908F907F906F90AB
:101D80005F904F903F902F900895FC010590615017
:101D900070400110D8F7809590958E0F9F1F089581
:101DA000FC016150704001900110D8F7809590952A
:101DB0008E0F9F1F08950F931F93CF93DF938C0176
:101DC000EB018B8181FF1BC082FF0DC02E813F8103
:101DD0008C819D812817390764F4E881F98101938A
:101DE000F983E88306C0E885F985802F0995009777
:101DF00031F48E819F8101969F838E8302C00FEF05
:101E00001FEFC801DF91CF911F910F910895FA0143
:101E1000AA27283051F1203181F1E8946F936E7F29
:101E20006E5F7F4F8F4F9F4FAF4FB1E03ED0B4E01A
:101E30003CD0670F781F891F9A1FA11D680F791F5B
:101E40008A1F911DA11D6A0F711D811D911DA11D6C
:101E500020D009F468943F912AE0269F112430197C
:101E6000305D3193DEF6CF010895462F4770405D17
:101E70004193B3E00FD0C9F7F6CF462F4F70405DC6
:101E80004A3318F0495D31FD4052419302D0A9F721
:101E9000EACFB4E0A6959795879577956795BA951B
:101EA000C9F700976105710508959B01AC010A2EE1
:101EB00006945795479537952795BA95C9F7620FB8
:0E1EC000731F841F951FA01D0895F894FFCF77
:101ECE006D61696E0053656E64696E6720736D7324
:101EDE00002B3937363939363637383432006865A3
:101EEE006C6C6F20626F726C640D0A1A00410041B7
:101EFE00544530004552524F52002B435245473AFB
:101F0E0020302C31002B435245473A20302C3500DF
:101F1E004F4B0041542B434D47533D222573220D09
:101F2E00003E0041544425733B0D00312C310025F9
:101F3E007322434F4E54595045222C224750525330
:101F4E00220D0041542B53415042523D332C312C23
:101F5E000025732241504E222C222573220D00257E
:101F6E00732255534552222C222573220D002573C0
:101F7E0022505744222C222573220D002B485454F4
:101F8E0050414354494F4E3A312C323030002B4899
:101F9E00545450414354494F4E3A302C3230300055
:101FAE002573222573220D0041542B485454505052
:101FBE004152413D2255524C222C0025732225734D
:101FCE003F2573220D0041542B4854545044415424
:101FDE00413D25642C32303030300D00444F574E89
:101FEE004C4F4144000D0041542B4854545052451F
:101FFE0041443D302C25640D002B4854545052451D
:10200E0041443A000D0A4F4B002000DE0200000052
:00000001FF
