:100000000C9472000C9491000C9491000C9491004B
:100010000C9491000C9491000C9491000C9491001C
:100020000C9491000C9491000C9491000C9491000C
:100030000C9491000C9491000C9491000C949100FC
:100040000C9491000C9491000C9435020C9469026C
:100050000C9491000C9491000C9491000C949100DC
:100060000C9491000C9491000C9491000C949100CC
:100070000C9491000C9491000C94FB020C943103AD
:100080000C9491000C9491000C949100427566665A
:100090006572206F766572666C6F77206572726F1D
:1000A000723A200055415254204F76657272756E37
:1000B000204572726F723A200055415254204672A8
:1000C000616D65204572726F723A200053747269D7
:1000D0006E672073746F72656420696E20464C41B0
:1000E00053480A0011241FBECFEFD0E1DEBFCDBFC1
:1000F00011E0A0E0B1E0ECE2F8E000E00BBF02C0EC
:1001000007900D92AC31B107D9F711E0ACE1B1E045
:1001100001C01D92A63AB107E1F70E94C8010C94F4
:1001200014040C940000AF9888230CF4AF9AAE9896
:1001300086FDAE9AAD9885FDAD9AAC9884FDAC9ADB
:10014000979A00009798000008951F93182F95988C
:1001500097980E949300812F8295807F0E94930040
:100160001F9108951F93182F959A97980E949300B6
:10017000812F8295807F0E9493001F9108950F9395
:100180001F93DF93CF9300D0CDB7DEB78C011A82D7
:100190001982E981FA81E80FF91F80818823B9F07B
:1001A000E981FA81E00FF11F80810E94B20089810C
:1001B0009A8101969A8389838AE18A95F1F700C032
:1001C000E981FA81E00FF11F8081882349F70F90C0
:1001D0000F90CF91DF911F910F9108951F93182FCA
:1001E0008AE18A95F1F700C0812F82958F70282FC0
:1001F00030E02A30310514F4805D01C0895C9AE159
:100200009A95F1F700C00E94B2008AE18A95F1F751
:1002100000C0212F30E02F7030702A30310524F4D7
:100220001F70812F805D03C01F70812F895C0E9429
:10023000B2009AE19A95F1F700C01F91089587EAFC
:1002400091E60197F1F700C000009598979880E338
:100250000E94930083EC99E00197F1F700C0000041
:1002600080E30E94930089EF90E00197F1F700C0CE
:10027000000080E30E94930089EF90E00197F1F77E
:1002800000C0000088E20E94930089EF90E001978F
:10029000F1F700C0000088E20E94A50089EF90E01D
:1002A0000197F1F700C0000088E00E94A50089EFE7
:1002B00090E00197F1F700C0000081E00E94A500E6
:1002C00087EE93E00197F1F700C0000086E00E94FE
:1002D000A50089EF90E00197F1F700C000008CE0E5
:1002E0000E94A50089EF90E00197F1F700C000009F
:1002F0000895982F907F95BB959AE5E6F0E0908160
:1003000090689083A9EFB0E01197F1F700C000006A
:1003100090819F7790839598A9EFB0E01197F1F7BE
:1003200000C0000090E082959295907F9827807F92
:10033000982785BB959A80818068808389EF90E0BB
:100340000197F1F700C0000080818F778083959836
:10035000A9EFB0E01197F1F700C0000008951F93D6
:10036000CF93DF93EC01FE012491222369F010E08A
:10037000FC0184910E9479011F5FCE01810F911DC4
:10038000FC0124912223A1F7DF91CF911F910895C1
:10039000AF92BF92CF92DF92EF92FF920F931F9393
:1003A000DF93CF93CDB7DEB727970FB6F894DEBFB4
:1003B0000FBECDBF8FEF84BB8F9A8D9A95980E9408
:1003C0001F0181E00E94A50083EC99E00197F1F7FD
:1003D00000C0000080E091E00E94BF0086E090E055
:1003E0000E946003789485E091E00E94AE038CEC5B
:1003F00090E00E94BD0386E890E08E010F5F1F4FE2
:10040000B8014AE050E00E94CF03C8010E94AE0349
:100410008DE00E9499030F2EFCE8EF2EF0E0FF2EF6
:10042000F02D0F2EF4EACF2EF0E0DF2EF02D0F2E60
:10043000F9EBAF2EF0E0BF2EF02D0E947A038C0175
:1004400090FDFBCF94FF03C0C5010E94BD0313FFC5
:1004500003C0C6010E94BD0311FF03C0C7010E9473
:10046000BD03802F0E949903E8CF1F920F920FB611
:100470000F920BB60F9211242F933F938F939F935C
:10048000EF93FF932BB13CB1809183018F5F8F710C
:1004900090918401891749F02C7180938301E5E8DC
:1004A000F1E0E80FF11D308301C022E09091A50139
:1004B000822F892B8093A501FF91EF919F918F91BE
:1004C0003F912F910F900BBE0F900FBE0F901F907A
:1004D00018951F920F920FB60F920BB60F92112420
:1004E0008F939F93EF93FF939091610180916201AD
:1004F000981769F0809162018F5F8F71809362011C
:10050000E3E6F1E0E80FF11D80818CB901C0559858
:10051000FF91EF919F918F910F900BBE0F900FBEA7
:100520000F901F9018951092610110926201109225
:10053000830110928401992314F422E02BB9292F0E
:1005400020782093900089B988E98AB986E0809361
:100550009500089590918301809184019817A1F0EE
:10056000809184018F5F8F71E5E8F1E0E80FF11D64
:1005700090814091A501809384011092A501342FB0
:1005800020E0290F311D02C020E031E0822F932F9F
:100590000895209161012F5F2F71909162012917B9
:1005A000E1F3E3E6F1E0E20FF11D808320936101C6
:1005B000559A0895CF93DF93EC018881882331F019
:1005C00021960E94C90289918823D9F7DF91CF91A2
:1005D0000895CF93DF93EC01FC018491882341F0CF
:1005E00021960E94C902FE01219684918823C9F7B1
:1005F000DF91CF9108951F920F920FB60F920BB615
:100600000F9211242F933F938F939F93EF93FF9318
:1006100020919B0030919C0080913E018F5F8F71F3
:1006200090913F01891749F02C7180933E01E0E4DD
:10063000F1E0E80FF11D308301C022E090916001EC
:10064000822F892B80936001FF91EF919F918F9171
:100650003F912F910F900BBE0F900FBE0F901F90E8
:1006600018951F920F920FB60F920BB60F9211248E
:100670008F939F93EF93FF9390911C0180911D01A5
:10068000981771F080911D018F5F8F7180931D010C
:10069000EEE1F1E0E80FF11D808180939C0005C040
:1006A000EAE9F0E080818F7D8083FF91EF919F9157
:1006B0008F910F900BBE0F900FBE0F901F9018954B
:1006C00010921C0110921D0110923E0110923F01E8
:1006D00099231CF422E020939B00292F207820935B
:1006E00098008093990088E980939A0086E080932F
:1006F0009D00089590913E0180913F019817A1F0CF
:1007000080913F018F5F8F71E0E4F1E0E80FF11D10
:1007100090814091600180933F0110926001342FDD
:1007200020E0290F311D02C020E031E0822F932FFD
:10073000089520911C012F5F2F7190911D012917A1
:10074000E1F3EEE1F1E0E20FF11D808320931C0163
:10075000EAE9F0E08081806280830895CF93DF939F
:10076000EC018881882331F021960E9499038991B8
:100770008823D9F7DF91CF910895CF93DF93EC01D0
:10078000FC018491882341F021960E949903FE0187
:10079000219684918823C9F7DF91CF910895FB01B9
:1007A0009F01E8944230C4F04532B4F44A3029F451
:1007B00097FB1EF4909581959F4F642F77270E9499
:1007C0000004805D8A330CF0895D8193CB01009732
:1007D000A1F716F45DE251931082C9010C94F00365
:1007E000DC01FC01672F71917723E1F7329704C098
:1007F0007C916D9370836291AE17BF07C8F3089523
:10080000AA1BBB1B51E107C0AA1FBB1FA617B70736
:1008100010F0A61BB70B881F991F5A95A9F7809552
:0C0820009095BC01CD010895F894FFCF25
:10082C006D61696E00537472696E672073746F72B8
:0C083C00656420696E205352414D0A0093
:00000001FF
