:100000000C94BE000C94DD000C94DD000C94DD001B
:100010000C94DD000C94DD000C94DD000C94DD00EC
:100020000C94DD000C94DD000C94DD000C94DD00DC
:100030000C94DD000C94DD000C94DD000C94DD00CC
:100040000C94DD000C94DD000C9441090C947509AE
:100050000C94DD000C94DD000C94DD000C94DD00AC
:100060000C94DD000C94DD000C94DD000C94DD009C
:100070000C94DD000C94DD000C94070A0C943D0AEE
:100080000C94DD000C94DD000C94DD0041542B48F1
:10009000545450414354494F4E3D300D0041542B70
:1000A00048545450414354494F4E3D310D00415442
:1000B0002B48545450504152413D22434F4E5445D9
:1000C0004E54222C226170706C69636174696F6E8A
:1000D0002F6A736F6E220D0041542B4854545050B8
:1000E0004152413D22434944222C310D0041542BC1
:1000F00048545450494E49540D0041542B485454CF
:10010000505445524D0D0041542B53415042523DE5
:10011000312C310D0041542B53415042523D302C73
:10012000310D0041542B53415042523D322C310D80
:100130000041542B434C49503D310D0041542B4359
:10014000504D533D22534D222C22534D222C2253ED
:100150004D220D0041542B434D47463D310D00418A
:10016000540D0041540D0041542B435245473F0D5F
:100170000041542B435245473F0D000011241FBE40
:10018000CFEFD0E1DEBFCDBF12E0A0E0B1E0E4E40C
:10019000FFE100E00BBF02C007900D92A638B10747
:1001A000D9F713E0A6E8B2E001C01D92A431B1076F
:1001B000E1F70E941D020C94A00F0C940000AF9870
:1001C00088230CF4AF9AAE9886FDAE9AAD9885FD63
:1001D000AD9AAC9884FDAC9A979A82E08A95F1F733
:1001E00000C0979882E08A95F1F700C008951F93A8
:1001F000182F959897980E94DF00812F8295807F15
:100200000E94DF001F9108951F93182F959A9798C9
:100210000E94DF00812F8295807F0E94DF001F9166
:1002200008950F931F93DF93CF9300D0CDB7DEB720
:100230008C011A821982E981FA81E80FF91F808105
:100240008823B9F0E981FA81E00FF11F80810E94D3
:10025000040189819A8101969A83898385ED8A9523
:10026000F1F70000E981FA81E00FF11F8081882316
:1002700049F70F900F90CF91DF911F910F91089543
:100280001F93182F85ED8A95F1F70000812F829535
:100290008F70282F30E02A30310514F4805D01C0C2
:1002A000895C95ED9A95F1F700000E94040185EDB7
:1002B0008A95F1F70000212F30E02F7030702A303E
:1002C000310524F41F70812F805D03C01F70812FC2
:1002D000895C0E94040195ED9A95F1F700001F9149
:1002E00008958FEF90E7A2E081509040A040E1F7A1
:1002F00000C000009598979880E30E94DF00AFE16E
:10030000BEE41197F1F700C0000080E30E94DF0017
:100310008FEC97E00197F1F700C0000080E30E94A6
:10032000DF00AFECB7E01197F1F700C0000088E202
:100330000E94DF008FEC97E00197F1F700C000000A
:1003400088E20E94F700AFECB7E01197F1F700C028
:10035000000088E00E94F7008FEC97E00197F1F72A
:1003600000C0000081E00E94F700AFE3BFE11197F9
:10037000F1F700C0000086E00E94F7008FEC97E0E4
:100380000197F1F700C000008CE00E94F700AFEC8D
:10039000B7E01197F1F700C000000895982F907F03
:1003A00095BB959AE5E6F0E0908190689083AFEC7C
:1003B000B7E01197F1F700C0000090819F7790831C
:1003C0009598AFECB7E01197F1F700C0000090E00E
:1003D00082959295907F9827807F982785BB959AE4
:1003E0008081806880838FEC97E00197F1F700C0EF
:1003F000000080818F7780839598AFECB7E01197EC
:10040000F1F700C0000008951F93CF93DF93EC0134
:10041000FE012491222369F010E0FC0184910E94E6
:10042000CE011F5FCE01810F911DFC01249122237B
:10043000A1F7DF91CF911F9108958F929F92AF9274
:10044000BF92CF92DF92EF92FF920F931F93DF93B1
:10045000CF93CDB7DEB7C054D0400FB6F894DEBF0F
:100460000FBECDBF8FEF84BB8F9A8D9A95980E9457
:10047000710181E00E94F7008FE19EE40197F1F79E
:1004800000C0000080E091E00E94110180E895E248
:100490000E94AC02789481E00E94F700AFE1BEE4D4
:1004A0001197F1F700C000000E944C05882359F015
:1004B0000E9465058FEF93EDA0E381509040A0402E
:1004C000E1F700C0000085E091E00E94110182E1A7
:1004D00091E06BE171E044E251E00E949D050F2E36
:1004E000F6E2CF2EF1E0DF2EF02D0F2EF8E2AF2E48
:1004F000F1E0BF2EF02D0F2EF6E58F2EF1E09F2EAE
:10050000F02D7E010894E11CF11CC6010E9411012E
:1005100081E0B501A40120E487010E94F90681E091
:100520000E94F700AFE1BEE41197F1F700C00000B0
:10053000C7010E9411018FEF99E6A8E18150904018
:10054000A040E1F700C00000E0CF0E94860A21E051
:1005500080309207D1F70895CF93DF939C0140E05C
:1005600050E0CA01B901605C7D4B804F9F4F660F20
:10057000771F881F991F660F771F881F991F660FA7
:10058000771F881F991F220F331F441F551F220FEB
:10059000331F441F551F220F331F441F551F220FA7
:1005A000331F441F551F0E94DB0AC90101970E9497
:1005B0006C0A8FEF90E7A2E081509040A040E1F7F5
:1005C00000C00000C3E6D1E0CE010E94BA0A8FEF5E
:1005D00090E7A2E081509040A040E1F700C0000009
:1005E000CE010E94BA0A8FEF90E7A2E081509040BE
:1005F000A040E1F700C0000085E691E00E94BA0A41
:100600008FEF99E6A8E181509040A040E1F700C04B
:1006100000000E94A502DF91CF9108952F923F9292
:100620004F925F926F927F928F929F92AF92BF9202
:10063000CF92DF92EF92FF920F931F93DF93CF93AE
:1006400000D000D00F92CDB7DEB7282E3B012A0193
:1006500048015901E982DB82CA8280E490E061E0CE
:1006600070E00E94FD0A182FE92E982F492F5E2D69
:100670005D834C834115510509F478C0E92FFE2DA7
:1006800080E4DF011D928A95E9F761147104E9F1B4
:100690000E94A502222021F0C3010E94C90A35C090
:1006A000C3010E94BA0A31C00894E11CF11C011D6B
:1006B000111DB2E0BA95F1F700C00E94860AE1E090
:1006C00080309E0739F4E814F9040A051B0560F32D
:1006D00010E033C0E814F9040A051B0538F5D3010E
:1006E0008D933D01D3944114510439F08C819D8147
:1006F000B2010E94900C0097D9F48C819D81B101C8
:100700000E94900C009759F015C0612E7E2CDD24BC
:100710000F2EFAE62F2EF1E03F2EF02D03C0BD2D57
:10072000BF3351F0EE24FF248701C7CF10E005C08E
:1007300011E003C010E001C010E0E981EE2389F070
:10074000EA80FB80E114F10461F0DE1650F411231D
:1007500041F08A819B816C817D814D2D50E00E940A
:10076000800C8C819D810E94BC0B01C010E0812F08
:100770000F900F900F900F900F90CF91DF911F91DE
:100780000F91FF90EF90DF90CF90BF90AF909F9030
:100790008F907F906F905F904F903F902F90089533
:1007A000CF92DF92EF920F931F9381E061E771E0A8
:1007B00040E751E000E41BE42CE430E0EE24CC24DC
:1007C000DD240E940E03882391F481E067E671E046
:1007D0004BE751E000E41BE42CE430E00E940E0300
:1007E00021E030E0882329F420E030E002C021E05D
:1007F00030E0822F1F910F91EF90DF90CF900895FE
:10080000AF92BF92CF92DF92EF920F931F93CF934D
:10081000DF938823B9F0C3E6D1E00F2EF6E8AF2EC0
:10082000F1E0BF2EF02D81E0BE01A50100E211EA4A
:1008300027E030E0EE24CC24DD240E940E03882340
:1008400091F310C081E06FE571E046E851E000E20D
:1008500011EA27E030E0EE24CC24DD240E940E03D0
:10086000882341F181E064E571E046E851E000E26F
:1008700011EA27E030E0EE24CC24DD240E940E03B0
:100880008823C1F081E06CE371E046E851E000E2CA
:1008900011EA27E030E00E940E03882359F081E03E
:1008A00061E371E046E851E000E211EA27E030E060
:1008B0000E940E03DF91CF911F910F91EF90DF9077
:1008C000CF90BF90AF900895AF92BF92CF92DF923A
:1008D000EF92FF920F931F93CF93DF937C01B62E7D
:1008E000A72E80E290E061E070E00E94FD0A082FF0
:1008F000192FC82EE6016E01D92EE601209709F4C2
:100900005CC0E02FF92F80E2DF011D928A95E9F7A4
:100910008DB79EB708970FB6F8949EBF0FBE8DBFD8
:10092000EDB7FEB73196ADB7BEB711960C931197E0
:1009300012961C9380E290E09383828389E891E091
:1009400095838483F782E6820E94B20C8DB79EB7AE
:1009500008960FB6F8949EBF0FBE8DBF80E0602F43
:10096000712F47E951E000E814E82EE130E0EE2471
:10097000CC24DD240E940E03182F8823D1F0DE0141
:100980008B2D9A2DFC018EE101900D928150E1F7A3
:100990008AE18E8F1F8E80E0BE0146E851E000E8BC
:1009A00016E928E930E0EE24CC24DD240E940E0371
:1009B000182FCE010E94BC0B01C010E0812FDF91E7
:1009C000CF911F910F91FF90EF90DF90CF90BF904C
:1009D000AF900895CF92DF92EF92FF920F931F9303
:1009E000CF93DF938C018EE190E061E070E00E9494
:1009F000FD0AE82EE7017E01F92EE701209709F4B0
:100A000040C0EE2DF92F8EE1DF011D928A95E9F7A6
:100A10002DB73EB7285030400FB6F8943EBF0FBEFA
:100A20002DBFEDB7FEB73196ADB7BEB71296FC92AB
:100A3000EE9211978EE190E09383828389E991E0B1
:100A400095838483178306830E94B20C2DB73EB72B
:100A5000285F3F4F0FB6F8943EBF0FBE2DBF80E01A
:100A6000B70146E851E000E816E928E930E0EE2455
:100A7000CC24DD240E940E03082FCE010E94BC0B63
:100A800001C000E0802FDF91CF911F910F91FF9067
:100A9000EF90DF90CF900895CF92DF92EF920F9377
:100AA0001F9381E063E271E041EA51E000E211EA64
:100AB00027E030E0EE24CC24DD240E940E031F91B9
:100AC0000F91EF90DF90CF900895CF92DF92EF9249
:100AD0000F931F930E944C05882379F081E065E114
:100AE00071E046E851E000E41BE42CE430E0EE2441
:100AF000CC24DD240E940E0301C081E01F910F91E0
:100B0000EF90DF90CF900895CF92DF92EF920F9306
:100B10001F9381E067E071E046E851E000E011EEEC
:100B200025EF35E0EE24CC24DD240E940E031F9136
:100B30000F91EF90DF90CF9008956F927F928F92F8
:100B40009F92AF92BF92CF92DF92EF92FF920F935C
:100B50001F93CF93DF935C014B013A0183E290E056
:100B600061E070E00E94FD0A382FE82EE7017E0167
:100B7000F92EE701209709F413C1E32FF92F83E23F
:100B8000DF011D928A95E9F70E94D003882329F49A
:100B9000C7010E94BC0B80E004C10E944C05882361
:100BA00029F0C7010E94BC0B81E0FBC08DB79EB746
:100BB00008970FB6F8949EBF0FBE8DBFEDB7FEB776
:100BC0003196ADB7BEB71296FC92EE92119783E2C2
:100BD00090E09383828385EA91E09583848389EB17
:100BE00091E0978386830E94B20C8DB79EB70896DA
:100BF0000FB6F8949EBF0FBE8DBF80E0B70146E8E8
:100C000051E000E412E42FE030E0EE24CC24DD24B7
:100C10000E940E03882329F4CE010E94BC0B80E0C1
:100C2000C0C0ADB7BEB71A970FB6F894BEBF0FBE1F
:100C3000ADBFEDB7FEB731961296DC93CE93119708
:100C400083E290E09383828387EC91E095838483B1
:100C500089EB91E097838683B186A0860E94B20CCF
:100C60008DB79EB70A960FB6F8949EBF0FBE8DBF84
:100C700080E0BE0146E851E000E412E42FE030E0FD
:100C8000EE24CC24DD240E940E03882329F4CE0117
:100C90000E94BC0B80E085C0ADB7BEB71A970FB6F7
:100CA000F894BEBF0FBEADBFEDB7FEB7319612963A
:100CB000DC93CE93119783E290E09383828385ED5A
:100CC00091E09583848389EB91E097838683918675
:100CD00080860E94B20C8DB79EB70A960FB6F89424
:100CE0009EBF0FBE8DBF80E0BE0146E851E000E42C
:100CF00012E42FE030E0EE24CC24DD240E940E0329
:100D0000882329F4CE010E94BC0B80E04AC0ADB715
:100D1000BEB71A970FB6F894BEBF0FBEADBFEDB702
:100D2000FEB731961296DC93CE93119783E290E052
:100D30009383828384EE91E09583848389EB91E0B1
:100D400097838683718660860E94B20C8DB79EB7AA
:100D50000A960FB6F8949EBF0FBE8DBF80E0BE010D
:100D600046E851E000E412E42FE030E0EE24CC2429
:100D7000DD240E940E03882329F4CE010E94BC0BBF
:100D800080E00FC00E948405882329F4CE010E94D0
:100D9000BC0B80E006C0CE010E94BC0B81E001C00C
:100DA00080E0DF91CF911F910F91FF90EF90DF9046
:100DB000CF90BF90AF909F908F907F906F9008954D
:100DC000CF92DF92EF920F931F9381E06AEF70E072
:100DD00046E851E000E41BE42CE430E0EE24CC24AF
:100DE000DD240E940E031F910F91EF90DF90CF90B2
:100DF00008953F924F925F926F927F928F929F924F
:100E0000AF92BF92CF92DF92EF92FF920F931F9318
:100E1000DF93CF9300D000D000D0CDB7DEB7782ECF
:100E20002B01642E352EF22E480184E690E061E01D
:100E300070E00E94FD0AA82EB92EA114B10409F495
:100E400006C20115110541F0802F992D60E070E078
:100E50004F2D50E00E94890C0E944C05882329F4F4
:100E6000C5010E94BC0B10E0F3C10E94E0068FEFA9
:100E700090E7A2E081509040A040E1F700C0000060
:100E800081E06DEE70E046E851E000E41BE42CE404
:100E900030E0EE24CC24DD240E940E03882329F4C4
:100EA000C5010E94BC0B10E0D3C181E068ED70E089
:100EB00046E851E000E41BE42CE430E0EE24CC24CE
:100EC000DD240E940E03882339F40E94E006C50148
:100ED0000E94BC0B10E0BCC1EA2DFB2D84E6DF01B3
:100EE0001D928A95E9F7772041F1EDB7FEB73A9761
:100EF0000FB6F894FEBF0FBEEDBF3196ADB7BEB7CB
:100F00001296BC92AE92119784E690E0938382830E
:100F100086E192E0958384838EE192E097838683D5
:100F2000518640860E94B20CEDB7FEB73A960FB6D6
:100F3000F894FEBF0FBEEDBF2BC08DB79EB70C97C8
:100F40000FB6F8949EBF0FBE8DBFEDB7FEB73196BA
:100F5000ADB7BEB71296BC92AE92119784E690E000
:100F60009383828381E392E0958384838EE192E090
:100F70009783868351864086628633860E94B20CB0
:100F8000EDB7FEB73C960FB6F894FEBF0FBEEDBFAF
:100F900080E0B50146E851E000E41BE42CE430E0D9
:100FA000EE24CC24DD240E940E03882339F40E9411
:100FB000E006C5010E94BC0B10E04AC1772009F48D
:100FC00078C081E06EEA70E046E851E000E41BE49E
:100FD0002CE430E0EE24CC24DD240E940E03882390
:100FE00039F40E94E006C5010E94BC0B10E030C13C
:100FF000EA2DFB2D84E6DF011D928A95E9F7E62DA7
:10100000F32DDF010D900020E9F711979D012E1BB4
:101010003F0BEDB7FEB738970FB6F894FEBF0FBE83
:10102000EDBF3196ADB7BEB71296BC92AE92119796
:1010300084E690E0938382838CE392E095838483BB
:10104000378326830E94B20CEDB7FEB738960FB6F1
:10105000F894FEBF0FBEEDBF80E0B50142E552E05F
:1010600000E01DE221E331E0EE24CC24DD240E94E7
:101070000E03882339F40E94E006C5010E94BC0BD0
:1010800010E0E6C080E0662D732D46E851E000E4F4
:101090001BE42CE430E0EE24CC24DD240E940E037B
:1010A000882361F40E94E006C5010E94BC0B10E099
:1010B000CFC06CE870E044E052E004C06DE970E03D
:1010C00042EF51E081E000E01DE221E331E0EE2457
:1010D000CC24DD240E940E03182F882309F4B1C00C
:1010E000EA2DFB2D84E6DF011D928A95E9F780E069
:1010F00060E070E04BE552E000E412E42FE030E005
:101100000F2EF4E6EF2EF02D65010E940E03182F2E
:10111000882309F496C0C5016DE070E044E650E014
:101120000E94730C282F392F2115310509F489C02D
:101130003E010894611C711C86E0F30111928A95AE
:10114000E9F7A5014F5F5F4F241B350BC301642FE7
:10115000752F422F532F0E94800CC3010E94550C03
:101160002F2D30E0682E792E2615370508F4390129
:101170006114710409F465C0EA2DFB2D84E6DF01DA
:101180001D928A95E9F7EDB7FEB738970FB6F89438
:10119000FEBF0FBEEDBF3196ADB7BEB71296BC9283
:1011A000AE92119784E690E0938382838DE592E07E
:1011B00095838483778266820E94B20CEDB7FEB776
:1011C00038960FB6F894FEBF0FBEEDBF80E0B501B4
:1011D0004FE652E000E41BE42CE430E0EE24CC24A3
:1011E000DD240E940E03182F882359F1EA2DFB2DD0
:1011F00084E6DF011D928A95E9F780E060E070E007
:101200004AE752E000E412E42FE030E00F2EF4E66B
:10121000EF2EF02D65010E940E03182F882389F010
:10122000C5016AE070E0A3010E94730C9C012F5F6E
:101230003F4F882D992D622F732F462D572D0E94D9
:10124000800C0E94E006C5010E94BC0B01C010E0AA
:10125000812F26960FB6F894DEBF0FBECDBFCF917B
:10126000DF911F910F91FF90EF90DF90CF90BF9093
:10127000AF909F908F907F906F905F904F903F9036
:1012800008951F920F920FB60F920BB60F92112472
:101290002F933F938F939F93EF93FF932BB13CB189
:1012A0008091ED028F5F8F719091EE02891749F066
:1012B0002C718093ED02EFEEF2E0E80FF11D308328
:1012C00001C022E090910F03822F892B80930F039E
:1012D000FF91EF919F918F913F912F910F900BBEB6
:1012E0000F900FBE0F901F9018951F920F920FB680
:1012F0000F920BB60F9211248F939F93EF93FF934E
:101300009091CB028091CC02981769F08091CC0229
:101310008F5F8F718093CC02EDECF2E0E80FF11D4E
:1013200080818CB901C05598FF91EF919F918F9169
:101330000F900BBE0F900FBE0F901F90189510923C
:10134000CB021092CC021092ED021092EE02992381
:1013500014F422E02BB9292F20782093900089B92A
:1013600088E98AB986E08093950008959091ED020E
:101370008091EE029817A1F08091EE028F5F8F713D
:10138000EFEEF2E0E80FF11D908140910F038093A2
:10139000EE0210920F03342F20E0290F311D02C0FE
:1013A00020E031E0822F932F08952091CB022F5F10
:1013B0002F719091CC022917E1F3EDECF2E0E20FEE
:1013C000F11D80832093CB02559A0895CF93DF932C
:1013D000EC018881882331F021960E94D5098991FA
:1013E0008823D9F7DF91CF910895CF93DF93EC0154
:1013F000FC018491882341F021960E94D509FE01C9
:10140000219684918823C9F7DF91CF9108951F9287
:101410000F920FB60F920BB60F9211242F933F939A
:101420008F939F93EF93FF9320919B0030919C00AB
:101430008091A8028F5F8F719091A902891749F05E
:101440002C718093A802EAEAF2E0E80FF11D3083E4
:1014500001C022E09091CA02822F892B8093CA0298
:10146000FF91EF919F918F913F912F910F900BBE24
:101470000F900FBE0F901F9018951F920F920FB6EE
:101480000F920BB60F9211248F939F93EF93FF93BC
:101490009091860280918702981771F0809187025F
:1014A0008F5F8F7180938702E8E8F2E0E80FF11D0B
:1014B000808180939C0005C0EAE9F0E080818F7D07
:1014C0008083FF91EF919F918F910F900BBE0F90B2
:1014D0000FBE0F901F9018951092860210928702EF
:1014E0001092A8021092A90299231CF422E02093E2
:1014F0009B00292F2078209398008093990088E9F9
:1015000080939A0086E080939D0008959091A802B0
:101510008091A9029817A1F08091A9028F5F8F7125
:10152000EAEAF2E0E80FF11D90814091CA0280934F
:10153000A9021092CA02342F20E0290F311D02C0E7
:1015400020E031E0822F932F0895209186022F5FB3
:101550002F71909187022917E1F3E8E8F2E0E20F9A
:10156000F11D808320938602EAE9F0E080818062A9
:1015700080830895CF93DF93EC018881882331F035
:1015800021960E94A50A89918823D9F7DF91CF91EE
:101590000895CF93DF93EC01FC018491882341F0FF
:1015A00021960E94A50AFE01219684918823C9F7FD
:1015B000DF91CF910895A1E21A2EAA1BBB1BFD015A
:1015C0000DC0AA1FBB1FEE1FFF1FA217B307E40722
:1015D000F50720F0A21BB30BE40BF50B661F771F7A
:1015E000881F991F1A9469F760957095809590955A
:1015F0009B01AC01BD01CF010895EF92FF920F93C3
:101600001F93CF93DF93689F8001699F100D789F90
:10161000100D1124C8010E94220BE82EE7017E0163
:10162000F92EE701209731F08E2D60E070E0A801DF
:101630000E94890CCE01DF91CF911F910F91FF90F5
:10164000EF900895CF93DF938230910510F482E0FC
:1016500090E0E0911203F091130340E050E020E0AD
:1016600030E026C06081718168177907E0F0681763
:10167000790781F4828193812115310531F0D901F7
:1016800013969C938E9312972BC090931303809381
:10169000120326C04115510519F06417750718F497
:1016A000AB01E901DF019F0172816381E72FF62F12
:1016B0003097C1F64115510501F1481B590B4430D3
:1016C000510580F412968D919C911397209719F0F3
:1016D0009B838A8304C09093130380931203FD01BC
:1016E000329646C0FD01E40FF51F8193919342505D
:1016F000504011965C934E933BC020911003309163
:1017000011032115310541F42091810230918202AB
:1017100030931103209310032091830230918402AF
:101720002115310541F42DB73EB740917F0250910C
:101730008002241B350BE0911003F0911103E21796
:10174000F307A0F42E1B3F0B2817390778F0AC01E4
:101750004E5F5F4F2417350748F04E0F5F1F5093C1
:101760001103409310038193919302C0E0E0F0E0F5
:10177000CF01DF91CF910895CF93DF93009709F4C4
:1017800091C0FC0132971382128260911203709112
:1017900013036115710581F420813181280F391FF0
:1017A00080911003909111038217930799F5F0939C
:1017B0001103E093100376C0DB0180E090E002C0EB
:1017C000CD01D901AE17BF0748F412962D913C9177
:1017D000139721153105A1F7CD0121C0B383A28351
:1017E000EF01499159919E01240F351FA217B307AC
:1017F00079F42D913C911197240F351F2E5F3F4FA7
:101800003183208312962D913C9113973383228349
:10181000009729F4F0931303E093120343C0DC0113
:101820001396FC93EE9312974D915D91A40FB51F03
:10183000EA17FB0769F420813181240F351F2E5FE1
:101840003F4FEC0139832883228133813B832A83F4
:10185000E0E0F0E002C0FB01BC01DB0112968D91DB
:101860009C9113970097B9F79B012E5F3F4F8D9185
:101870009C911197820F931F409110035091110377
:101880004817590779F4309729F4109213031092EE
:10189000120302C01382128222503040309311038F
:1018A00020931003DF91CF910895FC018827992799
:1018B000E89421912032E9F3293010F02E30C8F35A
:1018C0002B3241F02D3239F4689404C00E94AA0CE6
:1018D000820F911D219120532A30C0F31EF4909560
:1018E00081959F4F0895FC014150504030F0019088
:1018F0000616D1F73197CF010895882799270895C3
:10190000FB01DC0102C001900D9241505040D8F71C
:101910000895DC0101C06D9341505040E0F70895F7
:10192000FB0151915523A9F0BF01DC014D914517F1
:101930004111E1F759F4CD010190002049F04D919A
:1019400040154111C9F3FB014111EFCF81E090E057
:10195000019708957AE0979F902D879F802D910D94
:10196000112408950F931F93DF93CF93CDB7DEB764
:101970002E970FB6F894DEBF0FBECDBF0D891E891E
:101980008F89988D26E02C831A83098397FF02C0E4
:1019900080E090E801979E838D839E01255E3F4FF6
:1019A000CE010196698D7A8DA9010E94F00C4D81BE
:1019B0005E8157FD0AC02F813885421753070CF40A
:1019C0009A01020F131FF80110822E960FB6F89499
:1019D000DEBF0FBECDBFCF91DF911F910F91089554
:1019E0002F923F924F925F926F927F928F929F922F
:1019F000AF92BF92CF92DF92EF92FF920F931F931D
:101A0000DF93CF93CDB7DEB72C970FB6F894DEBF38
:101A10000FBECDBF6C011B018A01FC01178216822B
:101A2000838181FFD1C12E010894411C511CF60114
:101A30009381F10193FD859193FF81911F0188238B
:101A400009F4BEC1853239F493FD859193FF8191EC
:101A50001F01853229F490E0B6010E94160FE7CFEE
:101A6000EE24FF2420E02032B0F48B3269F08C3277
:101A700028F4803251F0833271F40BC08D3239F08A
:101A8000803349F421602CC02260246029C0286082
:101A900027C0206125C027FD2CC0382F30533A3095
:101AA00098F426FF08C08E2D880FE82EEE0CEE0C61
:101AB000E80EE30E15C08F2D880FF82EFF0CFF0CDB
:101AC000F80EF30E20620CC08E3221F426FD78C190
:101AD000206406C08C3611F4206802C0883649F4B0
:101AE000F10193FD859193FF81911F01882309F0F6
:101AF000BACF982F9554933018F09052933028F421
:101B00000C5F1F4FFFE3F9830DC0833631F083373D
:101B100071F0833509F060C022C0F80180818983AB
:101B20000E5F1F4F420171E0A72EB12C16C062E07C
:101B3000662E712C600E711EF8018080918026FF48
:101B400003C06E2D70E002C06FEF7FEFC4012C87E1
:101B50000E940B0F5C0183012C852F7717C052E088
:101B6000652E712C600E711EF8018080918026FF19
:101B700003C06E2D70E002C06FEF7FEFC4012C87B1
:101B80000E94000F5C012C852068830123FD20C08A
:101B900008C080E290E0B6012C870E94160FFA94EC
:101BA0002C858F2D90E0A816B90698F311C0F4018A
:101BB00027FD859127FF81914F0190E0B6012C8789
:101BC0000E94160F2C85F110FA940894A108B10810
:101BD000A114B10461F7F1C0843611F0893649F5DA
:101BE00027FF08C0F80160817181828193810C5FB9
:101BF0001F4F09C0F80160817181882777FD8095AA
:101C0000982F0E5F1F4F4FE6B42EB22297FF09C0E8
:101C100090958095709561957F4F8F4F9F4FF0E81D
:101C2000BF2AA2012AE030E00E94420F782E7418E9
:101C300045C0853731F43FEEB32EB2222AE030E0C2
:101C400025C099EFB92EB2228F36C1F0803720F42B
:101C5000883509F0B5C00DC0803721F0883709F00C
:101C6000AFC002C020E1B22AB4FE0BC084E0B82AA3
:101C700008C0B4FE09C0E6E0BE2A06C028E030E095
:101C800005C020E130E002C020E132E0B7FE08C02C
:101C9000F80160817181828193810C5F1F4F07C0C1
:101CA000F8016081718180E090E00E5F1F4FA2011A
:101CB0000E94420F782E7418FFE7BF22B6FE0BC0B9
:101CC0002EEFB2227E1438F4B4FE07C0B2FC05C079
:101CD0008FEEB82202C0A72C01C0AE2C8B2D90E055
:101CE000B4FE0DC0FE01E70DF11D2081203319F473
:101CF000E9EEBE2209C0A394B2FE06C004C08678F5
:101D00009070009709F0A3948B2C9924B3FC14C015
:101D1000B0FE0FC0AF1428F4E72CEF0CEA18AF2C7C
:101D200008C0E72C06C080E290E0B6010E94160FC2
:101D3000A394AF14C0F304C0AF1410F4FA1801C098
:101D4000FF2484FE0FC080E390E0B6010E94160FCE
:101D500082FE1FC081FE03C088E590E010C088E7C6
:101D600090E00DC0C40186789070009791F081FCDE
:101D700002C080E201C08BE2B7FC8DE290E0B601C8
:101D80000E94160F06C080E390E0B6010E94160F75
:101D9000EA947E14C0F37A94F201E70DF11D80817C
:101DA00090E0B6010E94160F7720A9F706C080E2E6
:101DB00090E0B6010E94160FFA94FF20C1F737CECB
:101DC000F6012681378102C02FEF3FEFC9012C9623
:101DD0000FB6F894DEBF0FBECDBFCF91DF911F913C
:101DE0000F91FF90EF90DF90CF90BF90AF909F90BA
:101DF0008F907F906F905F904F903F902F900895BD
:101E0000FC010590615070400110D8F780959095C5
:101E10008E0F9F1F0895FC016150704001900110CA
:101E2000D8F7809590958E0F9F1F08950F931F935D
:101E3000CF93DF938C01EB018B8181FF1BC082FF6D
:101E40000DC02E813F818C819D812817390764F454
:101E5000E881F9810193F983E88306C0E885F98573
:101E6000802F0995009731F48E819F8101969F8381
:101E70008E8302C00FEF1FEFC801DF91CF911F913A
:101E80000F910895FA01AA27283051F1203181F1EC
:101E9000E8946F936E7F6E5F7F4F8F4F9F4FAF4F72
:101EA000B1E03ED0B4E03CD0670F781F891F9A1F85
:101EB000A11D680F791F8A1F911DA11D6A0F711D39
:101EC000811D911DA11D20D009F468943F912AE045
:101ED000269F11243019305D3193DEF6CF0108952D
:101EE000462F4770405D4193B3E00FD0C9F7F6CF5E
:101EF000462F4F70405D4A3318F0495D31FD405226
:101F0000419302D0A9F7EACFB4E0A69597958795BB
:101F100077956795BA95C9F700976105710508959A
:101F20009B01AC010A2E0694579547953795279546
:101F3000BA95C9F7620F731F841F951FA01D0895DE
:041F4000F894FFCF43
:101F44006D61696E006F70656E696E67206770728F
:101F54007300696E7465726E6574004D6F626943D7
:101F64006F6D200020006100687474703A2F2F692F
:101F74006E74656E73652D666A6F72642D373834BE
:101F840036382E6865726F6B756170702E636F6D75
:101F94002F74656D70007B2274656D70223A203158
:101FA400367D00410041544530004552524F5200A5
:101FB4002B435245473A20302C31002B435245479E
:101FC4003A20302C35004F4B0041542B434D47539E
:101FD4003D222573220D003E0041544425733B0DE0
:101FE40000312C3100257322434F4E545950452261
:101FF4002C2247505253220D0041542B534150423E
:10200400523D332C312C0025732241504E222C2278
:102014002573220D0025732255534552222C222567
:1020240073220D00257322505744222C222573223B
:102034000D002B48545450414354494F4E3A312CCF
:10204400323030002B48545450414354494F4E3A97
:10205400302C323030002573222573220D00415478
:102064002B48545450504152413D2255524C222C3D
:102074000025732225733F2573220D0041542B48FC
:10208400545450444154413D25642C323030303056
:102094000D00444F574E4C4F4144000D0041542B0A
:1020A40048545450524541443D302C25640D002B76
:1020B40048545450524541443A000D0A4F4B0020B5
:0620C400001403000000FF
:00000001FF
